{
    "contractName": "Cryptonauts",
    "abi": [
        {
            "inputs": [
                {
                    "internalType": "address payable",
                    "name": "_wallet",
                    "type": "address"
                }
            ],
            "stateMutability": "nonpayable",
            "type": "constructor"
        },
        {
            "anonymous": false,
            "inputs": [
                {
                    "indexed": true,
                    "internalType": "address",
                    "name": "owner",
                    "type": "address"
                },
                {
                    "indexed": true,
                    "internalType": "address",
                    "name": "approved",
                    "type": "address"
                },
                {
                    "indexed": true,
                    "internalType": "uint256",
                    "name": "tokenId",
                    "type": "uint256"
                }
            ],
            "name": "Approval",
            "type": "event"
        },
        {
            "anonymous": false,
            "inputs": [
                {
                    "indexed": true,
                    "internalType": "address",
                    "name": "owner",
                    "type": "address"
                },
                {
                    "indexed": true,
                    "internalType": "address",
                    "name": "operator",
                    "type": "address"
                },
                {
                    "indexed": false,
                    "internalType": "bool",
                    "name": "approved",
                    "type": "bool"
                }
            ],
            "name": "ApprovalForAll",
            "type": "event"
        },
        {
            "anonymous": false,
            "inputs": [
                {
                    "indexed": true,
                    "internalType": "uint256",
                    "name": "_tokenId",
                    "type": "uint256"
                },
                {
                    "indexed": false,
                    "internalType": "bytes32",
                    "name": "hash",
                    "type": "bytes32"
                }
            ],
            "name": "Mined",
            "type": "event"
        },
        {
            "anonymous": false,
            "inputs": [
                {
                    "indexed": true,
                    "internalType": "address",
                    "name": "previousOwner",
                    "type": "address"
                },
                {
                    "indexed": true,
                    "internalType": "address",
                    "name": "newOwner",
                    "type": "address"
                }
            ],
            "name": "OwnershipTransferred",
            "type": "event"
        },
        {
            "anonymous": false,
            "inputs": [
                {
                    "indexed": true,
                    "internalType": "address",
                    "name": "from",
                    "type": "address"
                },
                {
                    "indexed": true,
                    "internalType": "address",
                    "name": "to",
                    "type": "address"
                },
                {
                    "indexed": true,
                    "internalType": "uint256",
                    "name": "tokenId",
                    "type": "uint256"
                }
            ],
            "name": "Transfer",
            "type": "event"
        },
        {
            "inputs": [],
            "name": "PREV_CHAIN_LAST_HASH",
            "outputs": [
                {
                    "internalType": "bytes32",
                    "name": "",
                    "type": "bytes32"
                }
            ],
            "stateMutability": "view",
            "type": "function"
        },
        {
            "inputs": [
                {
                    "internalType": "address",
                    "name": "to",
                    "type": "address"
                },
                {
                    "internalType": "uint256",
                    "name": "tokenId",
                    "type": "uint256"
                }
            ],
            "name": "approve",
            "outputs": [],
            "stateMutability": "nonpayable",
            "type": "function"
        },
        {
            "inputs": [
                {
                    "internalType": "address",
                    "name": "owner",
                    "type": "address"
                }
            ],
            "name": "balanceOf",
            "outputs": [
                {
                    "internalType": "uint256",
                    "name": "",
                    "type": "uint256"
                }
            ],
            "stateMutability": "view",
            "type": "function"
        },
        {
            "inputs": [
                {
                    "internalType": "address payable",
                    "name": "_newWallet",
                    "type": "address"
                }
            ],
            "name": "changeWallet",
            "outputs": [],
            "stateMutability": "nonpayable",
            "type": "function"
        },
        {
            "inputs": [
                {
                    "internalType": "uint256",
                    "name": "tokenId",
                    "type": "uint256"
                }
            ],
            "name": "getApproved",
            "outputs": [
                {
                    "internalType": "address",
                    "name": "",
                    "type": "address"
                }
            ],
            "stateMutability": "view",
            "type": "function"
        },
        {
            "inputs": [
                {
                    "internalType": "uint256",
                    "name": "_tokenId",
                    "type": "uint256"
                }
            ],
            "name": "hashOf",
            "outputs": [
                {
                    "internalType": "bytes32",
                    "name": "",
                    "type": "bytes32"
                }
            ],
            "stateMutability": "view",
            "type": "function"
        },
        {
            "inputs": [
                {
                    "internalType": "address",
                    "name": "owner",
                    "type": "address"
                },
                {
                    "internalType": "address",
                    "name": "operator",
                    "type": "address"
                }
            ],
            "name": "isApprovedForAll",
            "outputs": [
                {
                    "internalType": "bool",
                    "name": "",
                    "type": "bool"
                }
            ],
            "stateMutability": "view",
            "type": "function"
        },
        {
            "inputs": [
                {
                    "internalType": "uint256",
                    "name": "nonce",
                    "type": "uint256"
                }
            ],
            "name": "mine",
            "outputs": [],
            "stateMutability": "payable",
            "type": "function"
        },
        {
            "inputs": [],
            "name": "name",
            "outputs": [
                {
                    "internalType": "string",
                    "name": "",
                    "type": "string"
                }
            ],
            "stateMutability": "view",
            "type": "function"
        },
        {
            "inputs": [],
            "name": "owner",
            "outputs": [
                {
                    "internalType": "address",
                    "name": "",
                    "type": "address"
                }
            ],
            "stateMutability": "view",
            "type": "function"
        },
        {
            "inputs": [
                {
                    "internalType": "uint256",
                    "name": "tokenId",
                    "type": "uint256"
                }
            ],
            "name": "ownerOf",
            "outputs": [
                {
                    "internalType": "address",
                    "name": "",
                    "type": "address"
                }
            ],
            "stateMutability": "view",
            "type": "function"
        },
        {
            "inputs": [],
            "name": "renounceOwnership",
            "outputs": [],
            "stateMutability": "nonpayable",
            "type": "function"
        },
        {
            "inputs": [
                {
                    "internalType": "address",
                    "name": "from",
                    "type": "address"
                },
                {
                    "internalType": "address",
                    "name": "to",
                    "type": "address"
                },
                {
                    "internalType": "uint256",
                    "name": "tokenId",
                    "type": "uint256"
                }
            ],
            "name": "safeTransferFrom",
            "outputs": [],
            "stateMutability": "nonpayable",
            "type": "function"
        },
        {
            "inputs": [
                {
                    "internalType": "address",
                    "name": "from",
                    "type": "address"
                },
                {
                    "internalType": "address",
                    "name": "to",
                    "type": "address"
                },
                {
                    "internalType": "uint256",
                    "name": "tokenId",
                    "type": "uint256"
                },
                {
                    "internalType": "bytes",
                    "name": "_data",
                    "type": "bytes"
                }
            ],
            "name": "safeTransferFrom",
            "outputs": [],
            "stateMutability": "nonpayable",
            "type": "function"
        },
        {
            "inputs": [
                {
                    "internalType": "address",
                    "name": "operator",
                    "type": "address"
                },
                {
                    "internalType": "bool",
                    "name": "approved",
                    "type": "bool"
                }
            ],
            "name": "setApprovalForAll",
            "outputs": [],
            "stateMutability": "nonpayable",
            "type": "function"
        },
        {
            "inputs": [
                {
                    "internalType": "bytes4",
                    "name": "interfaceId",
                    "type": "bytes4"
                }
            ],
            "name": "supportsInterface",
            "outputs": [
                {
                    "internalType": "bool",
                    "name": "",
                    "type": "bool"
                }
            ],
            "stateMutability": "view",
            "type": "function"
        },
        {
            "inputs": [],
            "name": "symbol",
            "outputs": [
                {
                    "internalType": "string",
                    "name": "",
                    "type": "string"
                }
            ],
            "stateMutability": "view",
            "type": "function"
        },
        {
            "inputs": [
                {
                    "internalType": "uint256",
                    "name": "tokenId",
                    "type": "uint256"
                }
            ],
            "name": "tokenURI",
            "outputs": [
                {
                    "internalType": "string",
                    "name": "",
                    "type": "string"
                }
            ],
            "stateMutability": "view",
            "type": "function"
        },
        {
            "inputs": [
                {
                    "internalType": "address",
                    "name": "from",
                    "type": "address"
                },
                {
                    "internalType": "address",
                    "name": "to",
                    "type": "address"
                },
                {
                    "internalType": "uint256",
                    "name": "tokenId",
                    "type": "uint256"
                }
            ],
            "name": "transferFrom",
            "outputs": [],
            "stateMutability": "nonpayable",
            "type": "function"
        },
        {
            "inputs": [
                {
                    "internalType": "address",
                    "name": "newOwner",
                    "type": "address"
                }
            ],
            "name": "transferOwnership",
            "outputs": [],
            "stateMutability": "nonpayable",
            "type": "function"
        }
    ],
    "bytecode": "608060405267016345785d8a0000600a556200002061012c60001962000222565b600b556003600c553480156200003557600080fd5b5060405162001f8538038062001f858339810160408190526200005891620001f2565b604080518082018252600b81526a43727970746f6e6175747360a81b602080830191825283518085019094526006845265434e4155545360d01b908401528151919291620000a9916000916200014c565b508051620000bf9060019060208401906200014c565b5050506000620000d46200014860201b60201c565b600680546001600160a01b0319166001600160a01b038316908117909155604051919250906000907f8be0079c531659141344cd1fd0a4f28419497f9722a3daafe3b4186f6b6457e0908290a350600880546001600160a01b0319166001600160a01b039290921691909117905562000280565b3390565b8280546200015a9062000243565b90600052602060002090601f0160209004810192826200017e5760008555620001c9565b82601f106200019957805160ff1916838001178555620001c9565b82800160010185558215620001c9579182015b82811115620001c9578251825591602001919060010190620001ac565b50620001d7929150620001db565b5090565b5b80821115620001d75760008155600101620001dc565b60006020828403121562000204578081fd5b81516001600160a01b03811681146200021b578182fd5b9392505050565b6000826200023e57634e487b7160e01b81526012600452602481fd5b500490565b6002810460018216806200025857607f821691505b602082108114156200027a57634e487b7160e01b600052602260045260246000fd5b50919050565b611cf580620002906000396000f3fe60806040526004361061011f5760003560e01c80637e551b75116100a0578063b1ac134711610064578063b1ac13471461030a578063b88d4fde1461031f578063c87b56dd1461033f578063e985e9c51461035f578063f2fde38b1461037f5761011f565b80637e551b75146102805780638da5cb5b146102a057806395d89b41146102b557806398b9a2dc146102ca578063a22cb465146102ea5761011f565b806342842e0e116100e757806342842e0e146101eb5780634d4748981461020b5780636352211e1461021e57806370a082311461023e578063715018a61461026b5761011f565b806301ffc9a71461012457806306fdde031461015a578063081812fc1461017c578063095ea7b3146101a957806323b872dd146101cb575b600080fd5b34801561013057600080fd5b5061014461013f3660046113b9565b61039f565b60405161015191906114ed565b60405180910390f35b34801561016657600080fd5b5061016f6103e7565b6040516101519190611501565b34801561018857600080fd5b5061019c6101973660046113f1565b610479565b604051610151919061149c565b3480156101b557600080fd5b506101c96101c436600461138e565b6104c5565b005b3480156101d757600080fd5b506101c96101e6366004611244565b61055d565b3480156101f757600080fd5b506101c9610206366004611244565b610595565b6101c96102193660046113f1565b6105b0565b34801561022a57600080fd5b5061019c6102393660046113f1565b6107a3565b34801561024a57600080fd5b5061025e6102593660046111f0565b6107d8565b60405161015191906114f8565b34801561027757600080fd5b506101c961081c565b34801561028c57600080fd5b5061025e61029b3660046113f1565b6108a5565b3480156102ac57600080fd5b5061019c6108ff565b3480156102c157600080fd5b5061016f61090e565b3480156102d657600080fd5b506101c96102e53660046111f0565b61091d565b3480156102f657600080fd5b506101c961030536600461135d565b61097e565b34801561031657600080fd5b5061025e610a4c565b34801561032b57600080fd5b506101c961033a366004611284565b610a52565b34801561034b57600080fd5b5061016f61035a3660046113f1565b610a91565b34801561036b57600080fd5b5061014461037a36600461120c565b610b14565b34801561038b57600080fd5b506101c961039a3660046111f0565b610b42565b60006001600160e01b031982166380ac58cd60e01b14806103d057506001600160e01b03198216635b5e139f60e01b145b806103df57506103df82610c03565b90505b919050565b6060600080546103f690611be5565b80601f016020809104026020016040519081016040528092919081815260200182805461042290611be5565b801561046f5780601f106104445761010080835404028352916020019161046f565b820191906000526020600020905b81548152906001019060200180831161045257829003601f168201915b5050505050905090565b600061048482610c1c565b6104a95760405162461bcd60e51b81526004016104a09061182c565b60405180910390fd5b506000908152600460205260409020546001600160a01b031690565b60006104d0826107a3565b9050806001600160a01b0316836001600160a01b031614156105045760405162461bcd60e51b81526004016104a09061197c565b806001600160a01b0316610516610c39565b6001600160a01b0316148061053257506105328161037a610c39565b61054e5760405162461bcd60e51b81526004016104a090611707565b6105588383610c3d565b505050565b61056e610568610c39565b82610cab565b61058a5760405162461bcd60e51b81526004016104a0906119f2565b610558838383610d30565b61055883838360405180602001604052806000815250610a52565b6009546000906105c1906001611a43565b905060006105ce82610e5d565b9050600081600c546105e09190611ab5565b600b546105ed9190611a5b565b9050600d82111561061c5761060461400084611ba2565b61060f906001611a43565b6106199082611a5b565b90505b600a54600090600161062f856002611ab5565b6106399190611ba2565b6106439190611b83565b90506000336007548760405160200161065e93929190611435565b604051602081830303815290604052805190602001209050828160001c106106985760405162461bcd60e51b81526004016104a090611566565b813410156106b85760405162461bcd60e51b81526004016104a090611878565b80426040516020016106cb92919061145f565b60408051601f1981840301815291905280516020909101206007819055600980546001810182556000919091527f6e1540171b6c0c960b71a7020d9f60077f6af931a8bbf590da0223dacf75c7af0181905590506107293386610e90565b847f5570ed3da2dab8635dcc918badc12e05d60cbc9185347ef0065ab7335568cdae8260405161075991906114f8565b60405180910390a26008546040516001600160a01b03909116903480156108fc02916000818181858888f1935050505015801561079a573d6000803e3d6000fd5b50505050505050565b6000818152600260205260408120546001600160a01b0316806103df5760405162461bcd60e51b81526004016104a0906117ae565b60006001600160a01b0382166108005760405162461bcd60e51b81526004016104a090611764565b506001600160a01b031660009081526003602052604090205490565b610824610c39565b6001600160a01b03166108356108ff565b6001600160a01b03161461085b5760405162461bcd60e51b81526004016104a0906118af565b6006546040516000916001600160a01b0316907f8be0079c531659141344cd1fd0a4f28419497f9722a3daafe3b4186f6b6457e0908390a3600680546001600160a01b0319169055565b60006108b082610c1c565b6108cc5760405162461bcd60e51b81526004016104a0906119bd565b600982815481106108ed57634e487b7160e01b600052603260045260246000fd5b90600052602060002001549050919050565b6006546001600160a01b031690565b6060600180546103f690611be5565b610925610c39565b6001600160a01b03166109366108ff565b6001600160a01b03161461095c5760405162461bcd60e51b81526004016104a0906118af565b600880546001600160a01b0319166001600160a01b0392909216919091179055565b610986610c39565b6001600160a01b0316826001600160a01b031614156109b75760405162461bcd60e51b81526004016104a090611684565b80600560006109c4610c39565b6001600160a01b03908116825260208083019390935260409182016000908120918716808252919093529120805460ff191692151592909217909155610a08610c39565b6001600160a01b03167f17307eab39ab6107e8899845ad3d59bd9653f200f220920489ca2b5937696c3183604051610a4091906114ed565b60405180910390a35050565b60075481565b610a63610a5d610c39565b83610cab565b610a7f5760405162461bcd60e51b81526004016104a0906119f2565b610a8b84848484610f6f565b50505050565b6060610a9c82610c1c565b610ab85760405162461bcd60e51b81526004016104a09061192d565b6000610ac2610fa2565b90506000815111610ae25760405180602001604052806000815250610b0d565b80610aec84610fb4565b604051602001610afd92919061146d565b6040516020818303038152906040525b9392505050565b6001600160a01b03918216600090815260056020908152604080832093909416825291909152205460ff1690565b610b4a610c39565b6001600160a01b0316610b5b6108ff565b6001600160a01b031614610b815760405162461bcd60e51b81526004016104a0906118af565b6001600160a01b038116610ba75760405162461bcd60e51b81526004016104a0906115c3565b6006546040516001600160a01b038084169216907f8be0079c531659141344cd1fd0a4f28419497f9722a3daafe3b4186f6b6457e090600090a3600680546001600160a01b0319166001600160a01b0392909216919091179055565b6001600160e01b031981166301ffc9a760e01b14919050565b6000908152600260205260409020546001600160a01b0316151590565b3390565b600081815260046020526040902080546001600160a01b0319166001600160a01b0384169081179091558190610c72826107a3565b6001600160a01b03167f8c5be1e5ebec7d5bd14f71427d1e84f3dd0314c0f7b2291e5b200ac8c7c3b92560405160405180910390a45050565b6000610cb682610c1c565b610cd25760405162461bcd60e51b81526004016104a0906116bb565b6000610cdd836107a3565b9050806001600160a01b0316846001600160a01b03161480610d185750836001600160a01b0316610d0d84610479565b6001600160a01b0316145b80610d285750610d288185610b14565b949350505050565b826001600160a01b0316610d43826107a3565b6001600160a01b031614610d695760405162461bcd60e51b81526004016104a0906118e4565b6001600160a01b038216610d8f5760405162461bcd60e51b81526004016104a090611640565b610d9a838383610558565b610da5600082610c3d565b6001600160a01b0383166000908152600360205260408120805460019290610dce908490611ba2565b90915550506001600160a01b0382166000908152600360205260408120805460019290610dfc908490611a43565b909155505060008181526002602052604080822080546001600160a01b0319166001600160a01b0386811691821790925591518493918716917fddf252ad1be2c89b69c2b068fc378daa952ba7f163c4a11628f55a4df523b3ef91a4505050565b60005b8115610e8557610e71600283611a5b565b915080610e7d81611c20565b915050610e60565b6103df600182611ba2565b6001600160a01b038216610eb65760405162461bcd60e51b81526004016104a0906117f7565b610ebf81610c1c565b15610edc5760405162461bcd60e51b81526004016104a090611609565b610ee860008383610558565b6001600160a01b0382166000908152600360205260408120805460019290610f11908490611a43565b909155505060008181526002602052604080822080546001600160a01b0319166001600160a01b03861690811790915590518392907fddf252ad1be2c89b69c2b068fc378daa952ba7f163c4a11628f55a4df523b3ef908290a45050565b610f7a848484610d30565b610f86848484846110cf565b610a8b5760405162461bcd60e51b81526004016104a090611514565b60408051602081019091526000815290565b606081610fd957506040805180820190915260018152600360fc1b60208201526103e2565b8160005b81156110035780610fed81611c20565b9150610ffc9050600a83611a5b565b9150610fdd565b60008167ffffffffffffffff81111561102c57634e487b7160e01b600052604160045260246000fd5b6040519080825280601f01601f191660200182016040528015611056576020820181803683370190505b5090505b8415610d285761106b600183611ba2565b9150611078600a86611c3b565b611083906030611a43565b60f81b8183815181106110a657634e487b7160e01b600052603260045260246000fd5b60200101906001600160f81b031916908160001a9053506110c8600a86611a5b565b945061105a565b60006110e3846001600160a01b03166111ea565b156111df57836001600160a01b031663150b7a026110ff610c39565b8786866040518563ffffffff1660e01b815260040161112194939291906114b0565b602060405180830381600087803b15801561113b57600080fd5b505af192505050801561116b575060408051601f3d908101601f19168201909252611168918101906113d5565b60015b6111c5573d808015611199576040519150601f19603f3d011682016040523d82523d6000602084013e61119e565b606091505b5080516111bd5760405162461bcd60e51b81526004016104a090611514565b805181602001fd5b6001600160e01b031916630a85bd0160e11b149050610d28565b506001949350505050565b3b151590565b600060208284031215611201578081fd5b8135610b0d81611c91565b6000806040838503121561121e578081fd5b823561122981611c91565b9150602083013561123981611c91565b809150509250929050565b600080600060608486031215611258578081fd5b833561126381611c91565b9250602084013561127381611c91565b929592945050506040919091013590565b60008060008060808587031215611299578081fd5b84356112a481611c91565b935060208501356112b481611c91565b925060408501359150606085013567ffffffffffffffff808211156112d7578283fd5b818701915087601f8301126112ea578283fd5b8135818111156112fc576112fc611c7b565b604051601f8201601f19908116603f0116810190838211818310171561132457611324611c7b565b816040528281528a602084870101111561133c578586fd5b82602086016020830137918201602001949094529598949750929550505050565b6000806040838503121561136f578182fd5b823561137a81611c91565b915060208301358015158114611239578182fd5b600080604083850312156113a0578182fd5b82356113ab81611c91565b946020939093013593505050565b6000602082840312156113ca578081fd5b8135610b0d81611ca9565b6000602082840312156113e6578081fd5b8151610b0d81611ca9565b600060208284031215611402578081fd5b5035919050565b60008151808452611421816020860160208601611bb9565b601f01601f19169290920160200192915050565b60609390931b6bffffffffffffffffffffffff191683526014830191909152603482015260540190565b918252602082015260400190565b6000835161147f818460208801611bb9565b835190830190611493818360208801611bb9565b01949350505050565b6001600160a01b0391909116815260200190565b6001600160a01b03858116825284166020820152604081018390526080606082018190526000906114e390830184611409565b9695505050505050565b901515815260200190565b90815260200190565b600060208252610b0d6020830184611409565b60208082526032908201527f4552433732313a207472616e7366657220746f206e6f6e20455243373231526560408201527131b2b4bb32b91034b6b83632b6b2b73a32b960711b606082015260800190565b6020808252603a908201527f54686973206861736820646f6573206e6f742066616c6c20756e64657220746860408201527f6520646966666963756c74792e204b656570206d696e696e6721000000000000606082015260800190565b60208082526026908201527f4f776e61626c653a206e6577206f776e657220697320746865207a65726f206160408201526564647265737360d01b606082015260800190565b6020808252601c908201527f4552433732313a20746f6b656e20616c7265616479206d696e74656400000000604082015260600190565b60208082526024908201527f4552433732313a207472616e7366657220746f20746865207a65726f206164646040820152637265737360e01b606082015260800190565b60208082526019908201527f4552433732313a20617070726f766520746f2063616c6c657200000000000000604082015260600190565b6020808252602c908201527f4552433732313a206f70657261746f7220717565727920666f72206e6f6e657860408201526b34b9ba32b73a103a37b5b2b760a11b606082015260800190565b60208082526038908201527f4552433732313a20617070726f76652063616c6c6572206973206e6f74206f7760408201527f6e6572206e6f7220617070726f76656420666f7220616c6c0000000000000000606082015260800190565b6020808252602a908201527f4552433732313a2062616c616e636520717565727920666f7220746865207a65604082015269726f206164647265737360b01b606082015260800190565b60208082526029908201527f4552433732313a206f776e657220717565727920666f72206e6f6e657869737460408201526832b73a103a37b5b2b760b91b606082015260800190565b6020808252818101527f4552433732313a206d696e7420746f20746865207a65726f2061646472657373604082015260600190565b6020808252602c908201527f4552433732313a20617070726f76656420717565727920666f72206e6f6e657860408201526b34b9ba32b73a103a37b5b2b760a11b606082015260800190565b60208082526018908201527f436f7374206f6620746f6b656e206973206e6f74206d65740000000000000000604082015260600190565b6020808252818101527f4f776e61626c653a2063616c6c6572206973206e6f7420746865206f776e6572604082015260600190565b60208082526029908201527f4552433732313a207472616e73666572206f6620746f6b656e2074686174206960408201526839903737ba1037bbb760b91b606082015260800190565b6020808252602f908201527f4552433732314d657461646174613a2055524920717565727920666f72206e6f60408201526e3732bc34b9ba32b73a103a37b5b2b760891b606082015260800190565b60208082526021908201527f4552433732313a20617070726f76616c20746f2063757272656e74206f776e656040820152603960f91b606082015260800190565b6020808252818101527f496e76616c696420746f6b656e49643a20646f6573206e6f742065786973742e604082015260600190565b60208082526031908201527f4552433732313a207472616e736665722063616c6c6572206973206e6f74206f6040820152701ddb995c881b9bdc88185c1c1c9bdd9959607a1b606082015260800190565b60008219821115611a5657611a56611c4f565b500190565b600082611a6a57611a6a611c65565b500490565b80825b6001808611611a815750611aac565b818704821115611a9357611a93611c4f565b80861615611aa057918102915b9490941c938002611a72565b94509492505050565b6000610b0d6000198484600082611ace57506001610b0d565b81611adb57506000610b0d565b8160018114611af15760028114611afb57611b28565b6001915050610b0d565b60ff841115611b0c57611b0c611c4f565b6001841b915084821115611b2257611b22611c4f565b50610b0d565b5060208310610133831016604e8410600b8410161715611b5b575081810a83811115611b5657611b56611c4f565b610b0d565b611b688484846001611a6f565b808604821115611b7a57611b7a611c4f565b02949350505050565b6000816000190483118215151615611b9d57611b9d611c4f565b500290565b600082821015611bb457611bb4611c4f565b500390565b60005b83811015611bd4578181015183820152602001611bbc565b83811115610a8b5750506000910152565b600281046001821680611bf957607f821691505b60208210811415611c1a57634e487b7160e01b600052602260045260246000fd5b50919050565b6000600019821415611c3457611c34611c4f565b5060010190565b600082611c4a57611c4a611c65565b500690565b634e487b7160e01b600052601160045260246000fd5b634e487b7160e01b600052601260045260246000fd5b634e487b7160e01b600052604160045260246000fd5b6001600160a01b0381168114611ca657600080fd5b50565b6001600160e01b031981168114611ca657600080fdfea26469706673582212206388765e8b3c60fec9ca539e3f41ea4796152db0347a56c8849d5f2ec5cbadbe64736f6c63430008010033",
    "sourcePath": "c:/Users/dev/Desktop/NFTFun/Cryptonauts/contracts/Cryptonauts.sol",
    "compiler": {
        "name": "solc",
        "version": "0.8.1+commit.df193b15"
    },
    "functionHashes": {
        "PREV_CHAIN_LAST_HASH()": "b1ac1347",
        "approve(address,uint256)": "095ea7b3",
        "balanceOf(address)": "70a08231",
        "changeWallet(address)": "98b9a2dc",
        "getApproved(uint256)": "081812fc",
        "hashOf(uint256)": "7e551b75",
        "isApprovedForAll(address,address)": "e985e9c5",
        "mine(uint256)": "4d474898",
        "name()": "06fdde03",
        "owner()": "8da5cb5b",
        "ownerOf(uint256)": "6352211e",
        "renounceOwnership()": "715018a6",
        "safeTransferFrom(address,address,uint256)": "42842e0e",
        "safeTransferFrom(address,address,uint256,bytes)": "b88d4fde",
        "setApprovalForAll(address,bool)": "a22cb465",
        "supportsInterface(bytes4)": "01ffc9a7",
        "symbol()": "95d89b41",
        "tokenURI(uint256)": "c87b56dd",
        "transferFrom(address,address,uint256)": "23b872dd",
        "transferOwnership(address)": "f2fde38b"
    },
    "gasEstimates": {
        "creation": {
            "codeDepositCost": "1482600",
            "executionCost": "infinite",
            "totalCost": "infinite"
        },
        "external": {
            "PREV_CHAIN_LAST_HASH()": "1050",
            "approve(address,uint256)": "infinite",
            "balanceOf(address)": "1393",
            "changeWallet(address)": "22184",
            "getApproved(uint256)": "2223",
            "hashOf(uint256)": "2958",
            "isApprovedForAll(address,address)": "infinite",
            "mine(uint256)": "infinite",
            "name()": "infinite",
            "owner()": "1115",
            "ownerOf(uint256)": "1344",
            "renounceOwnership()": "24363",
            "safeTransferFrom(address,address,uint256)": "infinite",
            "safeTransferFrom(address,address,uint256,bytes)": "infinite",
            "setApprovalForAll(address,bool)": "infinite",
            "supportsInterface(bytes4)": "604",
            "symbol()": "infinite",
            "tokenURI(uint256)": "infinite",
            "transferFrom(address,address,uint256)": "infinite",
            "transferOwnership(address)": "24594"
        },
        "internal": {
            "generationOf(uint256)": "infinite"
        }
    }
}